{
  "address": "0xE577e3bE76dd3e313c2Db147b1bB5397B6c781f7",
  "abi": [
    {
      "inputs": [
        {
          "internalType": "address",
          "name": "_endpoint",
          "type": "address"
        }
      ],
      "stateMutability": "nonpayable",
      "type": "constructor"
    },
    {
      "anonymous": false,
      "inputs": [
        {
          "indexed": false,
          "internalType": "uint16",
          "name": "_srcChainId",
          "type": "uint16"
        },
        {
          "indexed": false,
          "internalType": "bytes",
          "name": "_srcAddress",
          "type": "bytes"
        },
        {
          "indexed": false,
          "internalType": "uint64",
          "name": "_nonce",
          "type": "uint64"
        },
        {
          "indexed": false,
          "internalType": "bytes",
          "name": "_payload",
          "type": "bytes"
        },
        {
          "indexed": false,
          "internalType": "bytes",
          "name": "_reason",
          "type": "bytes"
        }
      ],
      "name": "MessageFailed",
      "type": "event"
    },
    {
      "anonymous": false,
      "inputs": [
        {
          "indexed": true,
          "internalType": "address",
          "name": "previousOwner",
          "type": "address"
        },
        {
          "indexed": true,
          "internalType": "address",
          "name": "newOwner",
          "type": "address"
        }
      ],
      "name": "OwnershipTransferred",
      "type": "event"
    },
    {
      "anonymous": false,
      "inputs": [
        {
          "indexed": false,
          "internalType": "address",
          "name": "account",
          "type": "address"
        }
      ],
      "name": "Paused",
      "type": "event"
    },
    {
      "anonymous": false,
      "inputs": [
        {
          "indexed": false,
          "internalType": "uint256",
          "name": "pings",
          "type": "uint256"
        }
      ],
      "name": "Ping",
      "type": "event"
    },
    {
      "anonymous": false,
      "inputs": [
        {
          "indexed": false,
          "internalType": "uint16",
          "name": "_srcChainId",
          "type": "uint16"
        },
        {
          "indexed": false,
          "internalType": "bytes",
          "name": "_srcAddress",
          "type": "bytes"
        },
        {
          "indexed": false,
          "internalType": "uint64",
          "name": "_nonce",
          "type": "uint64"
        },
        {
          "indexed": false,
          "internalType": "bytes32",
          "name": "_payloadHash",
          "type": "bytes32"
        }
      ],
      "name": "RetryMessageSuccess",
      "type": "event"
    },
    {
      "anonymous": false,
      "inputs": [
        {
          "indexed": false,
          "internalType": "uint16",
          "name": "_dstChainId",
          "type": "uint16"
        },
        {
          "indexed": false,
          "internalType": "uint16",
          "name": "_type",
          "type": "uint16"
        },
        {
          "indexed": false,
          "internalType": "uint256",
          "name": "_minDstGas",
          "type": "uint256"
        }
      ],
      "name": "SetMinDstGas",
      "type": "event"
    },
    {
      "anonymous": false,
      "inputs": [
        {
          "indexed": false,
          "internalType": "address",
          "name": "precrime",
          "type": "address"
        }
      ],
      "name": "SetPrecrime",
      "type": "event"
    },
    {
      "anonymous": false,
      "inputs": [
        {
          "indexed": false,
          "internalType": "uint16",
          "name": "_remoteChainId",
          "type": "uint16"
        },
        {
          "indexed": false,
          "internalType": "bytes",
          "name": "_path",
          "type": "bytes"
        }
      ],
      "name": "SetTrustedRemote",
      "type": "event"
    },
    {
      "anonymous": false,
      "inputs": [
        {
          "indexed": false,
          "internalType": "uint16",
          "name": "_remoteChainId",
          "type": "uint16"
        },
        {
          "indexed": false,
          "internalType": "bytes",
          "name": "_remoteAddress",
          "type": "bytes"
        }
      ],
      "name": "SetTrustedRemoteAddress",
      "type": "event"
    },
    {
      "anonymous": false,
      "inputs": [
        {
          "indexed": false,
          "internalType": "address",
          "name": "account",
          "type": "address"
        }
      ],
      "name": "Unpaused",
      "type": "event"
    },
    {
      "inputs": [],
      "name": "DEFAULT_PAYLOAD_SIZE_LIMIT",
      "outputs": [
        {
          "internalType": "uint256",
          "name": "",
          "type": "uint256"
        }
      ],
      "stateMutability": "view",
      "type": "function"
    },
    {
      "inputs": [],
      "name": "counter",
      "outputs": [
        {
          "internalType": "uint256",
          "name": "",
          "type": "uint256"
        }
      ],
      "stateMutability": "view",
      "type": "function"
    },
    {
      "inputs": [
        {
          "internalType": "bool",
          "name": "en",
          "type": "bool"
        }
      ],
      "name": "enable",
      "outputs": [],
      "stateMutability": "nonpayable",
      "type": "function"
    },
    {
      "inputs": [
        {
          "internalType": "uint16",
          "name": "",
          "type": "uint16"
        },
        {
          "internalType": "bytes",
          "name": "",
          "type": "bytes"
        },
        {
          "internalType": "uint64",
          "name": "",
          "type": "uint64"
        }
      ],
      "name": "failedMessages",
      "outputs": [
        {
          "internalType": "bytes32",
          "name": "",
          "type": "bytes32"
        }
      ],
      "stateMutability": "view",
      "type": "function"
    },
    {
      "inputs": [
        {
          "internalType": "uint16",
          "name": "_srcChainId",
          "type": "uint16"
        },
        {
          "internalType": "bytes",
          "name": "_srcAddress",
          "type": "bytes"
        }
      ],
      "name": "forceResumeReceive",
      "outputs": [],
      "stateMutability": "nonpayable",
      "type": "function"
    },
    {
      "inputs": [
        {
          "internalType": "uint16",
          "name": "_version",
          "type": "uint16"
        },
        {
          "internalType": "uint16",
          "name": "_chainId",
          "type": "uint16"
        },
        {
          "internalType": "address",
          "name": "",
          "type": "address"
        },
        {
          "internalType": "uint256",
          "name": "_configType",
          "type": "uint256"
        }
      ],
      "name": "getConfig",
      "outputs": [
        {
          "internalType": "bytes",
          "name": "",
          "type": "bytes"
        }
      ],
      "stateMutability": "view",
      "type": "function"
    },
    {
      "inputs": [
        {
          "internalType": "uint16",
          "name": "_remoteChainId",
          "type": "uint16"
        }
      ],
      "name": "getTrustedRemoteAddress",
      "outputs": [
        {
          "internalType": "bytes",
          "name": "",
          "type": "bytes"
        }
      ],
      "stateMutability": "view",
      "type": "function"
    },
    {
      "inputs": [
        {
          "internalType": "uint16",
          "name": "_srcChainId",
          "type": "uint16"
        },
        {
          "internalType": "bytes",
          "name": "_srcAddress",
          "type": "bytes"
        }
      ],
      "name": "isTrustedRemote",
      "outputs": [
        {
          "internalType": "bool",
          "name": "",
          "type": "bool"
        }
      ],
      "stateMutability": "view",
      "type": "function"
    },
    {
      "inputs": [],
      "name": "lzEndpoint",
      "outputs": [
        {
          "internalType": "contract ILayerZeroEndpoint",
          "name": "",
          "type": "address"
        }
      ],
      "stateMutability": "view",
      "type": "function"
    },
    {
      "inputs": [
        {
          "internalType": "uint16",
          "name": "_srcChainId",
          "type": "uint16"
        },
        {
          "internalType": "bytes",
          "name": "_srcAddress",
          "type": "bytes"
        },
        {
          "internalType": "uint64",
          "name": "_nonce",
          "type": "uint64"
        },
        {
          "internalType": "bytes",
          "name": "_payload",
          "type": "bytes"
        }
      ],
      "name": "lzReceive",
      "outputs": [],
      "stateMutability": "nonpayable",
      "type": "function"
    },
    {
      "inputs": [
        {
          "internalType": "uint16",
          "name": "",
          "type": "uint16"
        },
        {
          "internalType": "uint16",
          "name": "",
          "type": "uint16"
        }
      ],
      "name": "minDstGasLookup",
      "outputs": [
        {
          "internalType": "uint256",
          "name": "",
          "type": "uint256"
        }
      ],
      "stateMutability": "view",
      "type": "function"
    },
    {
      "inputs": [
        {
          "internalType": "uint16",
          "name": "_srcChainId",
          "type": "uint16"
        },
        {
          "internalType": "bytes",
          "name": "_srcAddress",
          "type": "bytes"
        },
        {
          "internalType": "uint64",
          "name": "_nonce",
          "type": "uint64"
        },
        {
          "internalType": "bytes",
          "name": "_payload",
          "type": "bytes"
        }
      ],
      "name": "nonblockingLzReceive",
      "outputs": [],
      "stateMutability": "nonpayable",
      "type": "function"
    },
    {
      "inputs": [],
      "name": "owner",
      "outputs": [
        {
          "internalType": "address",
          "name": "",
          "type": "address"
        }
      ],
      "stateMutability": "view",
      "type": "function"
    },
    {
      "inputs": [],
      "name": "paused",
      "outputs": [
        {
          "internalType": "bool",
          "name": "",
          "type": "bool"
        }
      ],
      "stateMutability": "view",
      "type": "function"
    },
    {
      "inputs": [
        {
          "internalType": "uint16",
          "name": "",
          "type": "uint16"
        }
      ],
      "name": "payloadSizeLimitLookup",
      "outputs": [
        {
          "internalType": "uint256",
          "name": "",
          "type": "uint256"
        }
      ],
      "stateMutability": "view",
      "type": "function"
    },
    {
      "inputs": [
        {
          "internalType": "uint16",
          "name": "_dstChainId",
          "type": "uint16"
        },
        {
          "internalType": "address",
          "name": "",
          "type": "address"
        },
        {
          "internalType": "uint256",
          "name": "pings",
          "type": "uint256"
        }
      ],
      "name": "ping",
      "outputs": [],
      "stateMutability": "payable",
      "type": "function"
    },
    {
      "inputs": [],
      "name": "precrime",
      "outputs": [
        {
          "internalType": "address",
          "name": "",
          "type": "address"
        }
      ],
      "stateMutability": "view",
      "type": "function"
    },
    {
      "inputs": [],
      "name": "renounceOwnership",
      "outputs": [],
      "stateMutability": "nonpayable",
      "type": "function"
    },
    {
      "inputs": [
        {
          "internalType": "uint16",
          "name": "_srcChainId",
          "type": "uint16"
        },
        {
          "internalType": "bytes",
          "name": "_srcAddress",
          "type": "bytes"
        },
        {
          "internalType": "uint64",
          "name": "_nonce",
          "type": "uint64"
        },
        {
          "internalType": "bytes",
          "name": "_payload",
          "type": "bytes"
        }
      ],
      "name": "retryMessage",
      "outputs": [],
      "stateMutability": "payable",
      "type": "function"
    },
    {
      "inputs": [
        {
          "internalType": "uint16",
          "name": "_version",
          "type": "uint16"
        },
        {
          "internalType": "uint16",
          "name": "_chainId",
          "type": "uint16"
        },
        {
          "internalType": "uint256",
          "name": "_configType",
          "type": "uint256"
        },
        {
          "internalType": "bytes",
          "name": "_config",
          "type": "bytes"
        }
      ],
      "name": "setConfig",
      "outputs": [],
      "stateMutability": "nonpayable",
      "type": "function"
    },
    {
      "inputs": [
        {
          "internalType": "uint16",
          "name": "_dstChainId",
          "type": "uint16"
        },
        {
          "internalType": "uint16",
          "name": "_packetType",
          "type": "uint16"
        },
        {
          "internalType": "uint256",
          "name": "_minGas",
          "type": "uint256"
        }
      ],
      "name": "setMinDstGas",
      "outputs": [],
      "stateMutability": "nonpayable",
      "type": "function"
    },
    {
      "inputs": [
        {
          "internalType": "uint16",
          "name": "_dstChainId",
          "type": "uint16"
        },
        {
          "internalType": "uint256",
          "name": "_size",
          "type": "uint256"
        }
      ],
      "name": "setPayloadSizeLimit",
      "outputs": [],
      "stateMutability": "nonpayable",
      "type": "function"
    },
    {
      "inputs": [
        {
          "internalType": "address",
          "name": "_precrime",
          "type": "address"
        }
      ],
      "name": "setPrecrime",
      "outputs": [],
      "stateMutability": "nonpayable",
      "type": "function"
    },
    {
      "inputs": [
        {
          "internalType": "uint16",
          "name": "_version",
          "type": "uint16"
        }
      ],
      "name": "setReceiveVersion",
      "outputs": [],
      "stateMutability": "nonpayable",
      "type": "function"
    },
    {
      "inputs": [
        {
          "internalType": "uint16",
          "name": "_version",
          "type": "uint16"
        }
      ],
      "name": "setSendVersion",
      "outputs": [],
      "stateMutability": "nonpayable",
      "type": "function"
    },
    {
      "inputs": [
        {
          "internalType": "uint16",
          "name": "_remoteChainId",
          "type": "uint16"
        },
        {
          "internalType": "bytes",
          "name": "_path",
          "type": "bytes"
        }
      ],
      "name": "setTrustedRemote",
      "outputs": [],
      "stateMutability": "nonpayable",
      "type": "function"
    },
    {
      "inputs": [
        {
          "internalType": "uint16",
          "name": "_remoteChainId",
          "type": "uint16"
        },
        {
          "internalType": "bytes",
          "name": "_remoteAddress",
          "type": "bytes"
        }
      ],
      "name": "setTrustedRemoteAddress",
      "outputs": [],
      "stateMutability": "nonpayable",
      "type": "function"
    },
    {
      "inputs": [
        {
          "internalType": "address",
          "name": "newOwner",
          "type": "address"
        }
      ],
      "name": "transferOwnership",
      "outputs": [],
      "stateMutability": "nonpayable",
      "type": "function"
    },
    {
      "inputs": [
        {
          "internalType": "uint16",
          "name": "",
          "type": "uint16"
        }
      ],
      "name": "trustedRemoteLookup",
      "outputs": [
        {
          "internalType": "bytes",
          "name": "",
          "type": "bytes"
        }
      ],
      "stateMutability": "view",
      "type": "function"
    },
    {
      "stateMutability": "payable",
      "type": "receive"
    }
  ],
  "transactionHash": "0xf05312e1c617e9dca705ba9baa4e3395b52729a7b98412853d1bef1987ae36f8",
  "args": [
    "0xae92d5aD7583AD66E49A0c67BAd18F6ba52dDDc1"
  ],
  "numDeployments": 1,
  "solcInputHash": "9887f9593f72e0ca283f8a0537332aaf",
  "bytecode": "0x60a06040523480156200001157600080fd5b506040516200258e3803806200258e8339810160408190526200003491620000af565b808062000041336200005f565b6001600160a01b031660805250506006805460ff19169055620000e1565b600080546001600160a01b038381166001600160a01b0319831681178455604051919092169283917f8be0079c531659141344cd1fd0a4f28419497f9722a3daafe3b4186f6b6457e09190a35050565b600060208284031215620000c257600080fd5b81516001600160a01b0381168114620000da57600080fd5b9392505050565b6080516124606200012e600039600081816104be015281816105df0152818161082e015281816108d6015281816109f801528181610e270152818161138501526118c901526124606000f3fe6080604052600436106101c55760003560e01c80638cfd8f5c116100f7578063c446183411610095578063eb8d72b711610064578063eb8d72b714610569578063f2d566fc14610589578063f2fde38b1461059c578063f5ecbdbc146105bc57600080fd5b8063c446183414610500578063cbed8b9c14610516578063d1deba1f14610536578063df2a5b3b1461054957600080fd5b80639f38369a116100d15780639f38369a1461046c578063a6c3d1651461048c578063b353aaa7146104ac578063baf3292d146104e057600080fd5b80638cfd8f5c146103e25780638da5cb5b1461041a578063950c8a741461044c57600080fd5b80634df68ada1161016457806361bc221a1161013e57806361bc221a1461036a57806366ad5c8a14610380578063715018a6146103a05780637533d788146103b557600080fd5b80634df68ada146102e35780635b8c41e6146103035780635c975abb1461035257600080fd5b806310ddb137116101a057806310ddb137146102335780633d8b38f6146102535780633f1f4fa41461028857806342d65a8d146102c357600080fd5b80621d3567146101d157806307e0db17146101f35780630df374831461021357600080fd5b366101cc57005b600080fd5b3480156101dd57600080fd5b506101f16101ec366004611cab565b6105dc565b005b3480156101ff57600080fd5b506101f161020e366004611d3e565b61080d565b34801561021f57600080fd5b506101f161022e366004611d59565b610896565b34801561023f57600080fd5b506101f161024e366004611d3e565b6108b5565b34801561025f57600080fd5b5061027361026e366004611d83565b61090d565b60405190151581526020015b60405180910390f35b34801561029457600080fd5b506102b56102a3366004611d3e565b60036020526000908152604090205481565b60405190815260200161027f565b3480156102cf57600080fd5b506101f16102de366004611d83565b6109d9565b3480156102ef57600080fd5b506101f16102fe366004611dd5565b610a5f565b34801561030f57600080fd5b506102b561031e366004611e64565b6005602090815260009384526040808520845180860184018051928152908401958401959095209452929052825290205481565b34801561035e57600080fd5b5060065460ff16610273565b34801561037657600080fd5b506102b560075481565b34801561038c57600080fd5b506101f161039b366004611cab565b610a78565b3480156103ac57600080fd5b506101f1610b54565b3480156103c157600080fd5b506103d56103d0366004611d3e565b610b68565b60405161027f9190611f60565b3480156103ee57600080fd5b506102b56103fd366004611f73565b600260209081526000928352604080842090915290825290205481565b34801561042657600080fd5b506000546001600160a01b03165b6040516001600160a01b03909116815260200161027f565b34801561045857600080fd5b50600454610434906001600160a01b031681565b34801561047857600080fd5b506103d5610487366004611d3e565b610c02565b34801561049857600080fd5b506101f16104a7366004611d83565b610d19565b3480156104b857600080fd5b506104347f000000000000000000000000000000000000000000000000000000000000000081565b3480156104ec57600080fd5b506101f16104fb366004611fbd565b610dac565b34801561050c57600080fd5b506102b561271081565b34801561052257600080fd5b506101f1610531366004611fd8565b610e08565b6101f1610544366004611cab565b610e9d565b34801561055557600080fd5b506101f1610564366004612046565b6110b3565b34801561057557600080fd5b506101f1610584366004611d83565b611165565b6101f1610597366004612082565b6111bf565b3480156105a857600080fd5b506101f16105b7366004611fbd565b6112de565b3480156105c857600080fd5b506103d56105d73660046120ae565b611354565b337f00000000000000000000000000000000000000000000000000000000000000006001600160a01b0316146106595760405162461bcd60e51b815260206004820152601e60248201527f4c7a4170703a20696e76616c696420656e64706f696e742063616c6c6572000060448201526064015b60405180910390fd5b61ffff861660009081526001602052604081208054610677906120f9565b80601f01602080910402602001604051908101604052809291908181526020018280546106a3906120f9565b80156106f05780601f106106c5576101008083540402835291602001916106f0565b820191906000526020600020905b8154815290600101906020018083116106d357829003601f168201915b5050505050905080518686905014801561070b575060008151115b80156107335750805160208201206040516107299088908890612134565b6040518091039020145b61078e5760405162461bcd60e51b815260206004820152602660248201527f4c7a4170703a20696e76616c696420736f757263652073656e64696e6720636f6044820152651b9d1c9858dd60d21b6064820152608401610650565b6108048787878080601f01602080910402602001604051908101604052809392919081815260200183838082843760009201919091525050604080516020601f8a018190048102820181019092528881528a93509150889088908190840183828082843760009201919091525061140592505050565b50505050505050565b61081561147e565b6040516307e0db1760e01b815261ffff821660048201527f00000000000000000000000000000000000000000000000000000000000000006001600160a01b0316906307e0db17906024015b600060405180830381600087803b15801561087b57600080fd5b505af115801561088f573d6000803e3d6000fd5b5050505050565b61089e61147e565b61ffff909116600090815260036020526040902055565b6108bd61147e565b6040516310ddb13760e01b815261ffff821660048201527f00000000000000000000000000000000000000000000000000000000000000006001600160a01b0316906310ddb13790602401610861565b61ffff83166000908152600160205260408120805482919061092e906120f9565b80601f016020809104026020016040519081016040528092919081815260200182805461095a906120f9565b80156109a75780601f1061097c576101008083540402835291602001916109a7565b820191906000526020600020905b81548152906001019060200180831161098a57829003601f168201915b5050505050905083836040516109be929190612134565b60405180910390208180519060200120149150509392505050565b6109e161147e565b6040516342d65a8d60e01b81526001600160a01b037f000000000000000000000000000000000000000000000000000000000000000016906342d65a8d90610a319086908690869060040161216d565b600060405180830381600087803b158015610a4b57600080fd5b505af1158015610804573d6000803e3d6000fd5b8015610a7057610a6d6114d8565b50565b610a6d611532565b333014610ad65760405162461bcd60e51b815260206004820152602660248201527f4e6f6e626c6f636b696e674c7a4170703a2063616c6c6572206d7573742062656044820152650204c7a4170760d41b6064820152608401610650565b610b4c8686868080601f01602080910402602001604051908101604052809392919081815260200183838082843760009201919091525050604080516020601f89018190048102820181019092528781528993509150879087908190840183828082843760009201919091525061156b92505050565b505050505050565b610b5c61147e565b610b6660006115fc565b565b60016020526000908152604090208054610b81906120f9565b80601f0160208091040260200160405190810160405280929190818152602001828054610bad906120f9565b8015610bfa5780601f10610bcf57610100808354040283529160200191610bfa565b820191906000526020600020905b815481529060010190602001808311610bdd57829003601f168201915b505050505081565b61ffff8116600090815260016020526040812080546060929190610c25906120f9565b80601f0160208091040260200160405190810160405280929190818152602001828054610c51906120f9565b8015610c9e5780601f10610c7357610100808354040283529160200191610c9e565b820191906000526020600020905b815481529060010190602001808311610c8157829003601f168201915b50505050509050805160001415610cf75760405162461bcd60e51b815260206004820152601d60248201527f4c7a4170703a206e6f20747275737465642070617468207265636f72640000006044820152606401610650565b610d12600060148351610d0a91906121a1565b83919061164c565b9392505050565b610d2161147e565b818130604051602001610d36939291906121b8565b60408051601f1981840301815291815261ffff85166000908152600160209081529190208251610d6b93919290910190611b28565b507f8c0400cfe2d1199b1a725c78960bcc2a344d869b80590d0f2bd005db15a572ce838383604051610d9f9392919061216d565b60405180910390a1505050565b610db461147e565b600480546001600160a01b0319166001600160a01b0383169081179091556040519081527f5db758e995a17ec1ad84bdef7e8c3293a0bd6179bcce400dff5d4c3d87db726b9060200160405180910390a150565b610e1061147e565b6040516332fb62e760e21b81526001600160a01b037f0000000000000000000000000000000000000000000000000000000000000000169063cbed8b9c90610e6490889088908890889088906004016121de565b600060405180830381600087803b158015610e7e57600080fd5b505af1158015610e92573d6000803e3d6000fd5b505050505050505050565b61ffff86166000908152600560205260408082209051610ec09088908890612134565b90815260408051602092819003830190206001600160401b03871660009081529252902054905080610f405760405162461bcd60e51b815260206004820152602360248201527f4e6f6e626c6f636b696e674c7a4170703a206e6f2073746f726564206d65737360448201526261676560e81b6064820152608401610650565b808383604051610f51929190612134565b604051809103902014610fb05760405162461bcd60e51b815260206004820152602160248201527f4e6f6e626c6f636b696e674c7a4170703a20696e76616c6964207061796c6f616044820152601960fa1b6064820152608401610650565b61ffff87166000908152600560205260408082209051610fd39089908990612134565b90815260408051602092819003830181206001600160401b038916600090815290845282902093909355601f8801829004820283018201905286825261106b918991899089908190840183828082843760009201919091525050604080516020601f8a018190048102820181019092528881528a93509150889088908190840183828082843760009201919091525061156b92505050565b7fc264d91f3adc5588250e1551f547752ca0cfa8f6b530d243b9f9f4cab10ea8e587878787856040516110a2959493929190612217565b60405180910390a150505050505050565b6110bb61147e565b600081116111035760405162461bcd60e51b81526020600482015260156024820152744c7a4170703a20696e76616c6964206d696e47617360581b6044820152606401610650565b61ffff83811660008181526002602090815260408083209487168084529482529182902085905581519283528201929092529081018290527f9d5c7c0b934da8fefa9c7760c98383778a12dfbfc0c3b3106518f43fb9508ac090606001610d9f565b61116d61147e565b61ffff8316600090815260016020526040902061118b908383611bac565b507ffa41487ad5d6728f0b19276fa1eddc16558578f5109fc39d2dc33c3230470dab838383604051610d9f9392919061216d565b6111c7611759565b6000471161123f576040805162461bcd60e51b81526020600482015260248101919091527f7468652062616c616e6365206f66207468697320636f6e74726163742069732060448201527f302e20706c732073656e642067617320666f72206d65737361676520666565736064820152608401610650565b7f48257dc961b6f792c2b78a080dacfed693b660960a702de21cee364e20270e2f61126982612252565b60405181815290925060200160405180910390a160008160405160200161129291815260200190565b60408051601f19818403018152828252600160f01b602084015262055730602280850182905283518086039091018152604290940190925292506001916108048785306000853461179f565b6112e661147e565b6001600160a01b03811661134b5760405162461bcd60e51b815260206004820152602660248201527f4f776e61626c653a206e6577206f776e657220697320746865207a65726f206160448201526564647265737360d01b6064820152608401610650565b610a6d816115fc565b604051633d7b2f6f60e21b815261ffff808616600483015284166024820152306044820152606481018290526060907f00000000000000000000000000000000000000000000000000000000000000006001600160a01b03169063f5ecbdbc90608401600060405180830381865afa1580156113d4573d6000803e3d6000fd5b505050506040513d6000823e601f3d908101601f191682016040526113fc919081019061226d565b95945050505050565b6000806114685a60966366ad5c8a60e01b8989898960405160240161142d94939291906122da565b60408051601f198184030181529190526020810180516001600160e01b03166001600160e01b03199093169290921790915230929190611945565b9150915081610b4c57610b4c86868686856119cf565b6000546001600160a01b03163314610b665760405162461bcd60e51b815260206004820181905260248201527f4f776e61626c653a2063616c6c6572206973206e6f7420746865206f776e65726044820152606401610650565b6114e0611759565b6006805460ff191660011790557f62e78cea01bee320cd4e420270b5ea74000d11b0c9f74754ebdbfc544b05a2586115153390565b6040516001600160a01b03909116815260200160405180910390a1565b61153a611a6c565b6006805460ff191690557f5db9ee0a495bf2e6ff9c91a7834c1ba4fdd244a5e8aa4e537bd38aeae4b073aa33611515565b6001600754106115b25760405162461bcd60e51b815260206004820152601260248201527131b7bab73a32b9103932b0b1b432b210189760711b6044820152606401610650565b601483015181516000906115cf9084016020908101908501612318565b90506115dc8683836111bf565b6001600760008282546115ef9190612331565b9091555050505050505050565b600080546001600160a01b038381166001600160a01b0319831681178455604051919092169283917f8be0079c531659141344cd1fd0a4f28419497f9722a3daafe3b4186f6b6457e09190a35050565b60608161165a81601f612331565b10156116995760405162461bcd60e51b815260206004820152600e60248201526d736c6963655f6f766572666c6f7760901b6044820152606401610650565b6116a38284612331565b845110156116e75760405162461bcd60e51b8152602060048201526011602482015270736c6963655f6f75744f66426f756e647360781b6044820152606401610650565b6060821580156117065760405191506000825260208201604052611750565b6040519150601f8416801560200281840101858101878315602002848b0101015b8183101561173f578051835260209283019201611727565b5050858452601f01601f1916604052505b50949350505050565b60065460ff1615610b665760405162461bcd60e51b815260206004820152601060248201526f14185d5cd8589b194e881c185d5cd95960821b6044820152606401610650565b61ffff8616600090815260016020526040812080546117bd906120f9565b80601f01602080910402602001604051908101604052809291908181526020018280546117e9906120f9565b80156118365780601f1061180b57610100808354040283529160200191611836565b820191906000526020600020905b81548152906001019060200180831161181957829003601f168201915b505050505090508051600014156118a85760405162461bcd60e51b815260206004820152603060248201527f4c7a4170703a2064657374696e6174696f6e20636861696e206973206e6f742060448201526f61207472757374656420736f7572636560801b6064820152608401610650565b6118b3878751611ab5565b60405162c5803160e81b81526001600160a01b037f0000000000000000000000000000000000000000000000000000000000000000169063c580310090849061190a908b9086908c908c908c908c90600401612349565b6000604051808303818588803b15801561192357600080fd5b505af1158015611937573d6000803e3d6000fd5b505050505050505050505050565b6000606060008060008661ffff166001600160401b0381111561196a5761196a611df7565b6040519080825280601f01601f191660200182016040528015611994576020820181803683370190505b50905060008087516020890160008d8df191503d9250868311156119b6578692505b828152826000602083013e909890975095505050505050565b8180519060200120600560008761ffff1661ffff16815260200190815260200160002085604051611a0091906123b0565b9081526040805191829003602090810183206001600160401b0388166000908152915220919091557fe183f33de2837795525b4792ca4cd60535bd77c53b7e7030060bfcf5734d6b0c90611a5d90879087908790879087906123cc565b60405180910390a15050505050565b60065460ff16610b665760405162461bcd60e51b815260206004820152601460248201527314185d5cd8589b194e881b9bdd081c185d5cd95960621b6044820152606401610650565b61ffff821660009081526003602052604090205480611ad357506127105b80821115611b235760405162461bcd60e51b815260206004820181905260248201527f4c7a4170703a207061796c6f61642073697a6520697320746f6f206c617267656044820152606401610650565b505050565b828054611b34906120f9565b90600052602060002090601f016020900481019282611b565760008555611b9c565b82601f10611b6f57805160ff1916838001178555611b9c565b82800160010185558215611b9c579182015b82811115611b9c578251825591602001919060010190611b81565b50611ba8929150611c20565b5090565b828054611bb8906120f9565b90600052602060002090601f016020900481019282611bda5760008555611b9c565b82601f10611bf35782800160ff19823516178555611b9c565b82800160010185558215611b9c579182015b82811115611b9c578235825591602001919060010190611c05565b5b80821115611ba85760008155600101611c21565b803561ffff81168114611c4757600080fd5b919050565b60008083601f840112611c5e57600080fd5b5081356001600160401b03811115611c7557600080fd5b602083019150836020828501011115611c8d57600080fd5b9250929050565b80356001600160401b0381168114611c4757600080fd5b60008060008060008060808789031215611cc457600080fd5b611ccd87611c35565b955060208701356001600160401b0380821115611ce957600080fd5b611cf58a838b01611c4c565b9097509550859150611d0960408a01611c94565b94506060890135915080821115611d1f57600080fd5b50611d2c89828a01611c4c565b979a9699509497509295939492505050565b600060208284031215611d5057600080fd5b610d1282611c35565b60008060408385031215611d6c57600080fd5b611d7583611c35565b946020939093013593505050565b600080600060408486031215611d9857600080fd5b611da184611c35565b925060208401356001600160401b03811115611dbc57600080fd5b611dc886828701611c4c565b9497909650939450505050565b600060208284031215611de757600080fd5b81358015158114610d1257600080fd5b634e487b7160e01b600052604160045260246000fd5b604051601f8201601f191681016001600160401b0381118282101715611e3557611e35611df7565b604052919050565b60006001600160401b03821115611e5657611e56611df7565b50601f01601f191660200190565b600080600060608486031215611e7957600080fd5b611e8284611c35565b925060208401356001600160401b03811115611e9d57600080fd5b8401601f81018613611eae57600080fd5b8035611ec1611ebc82611e3d565b611e0d565b818152876020838501011115611ed657600080fd5b81602084016020830137600060208383010152809450505050611efb60408501611c94565b90509250925092565b60005b83811015611f1f578181015183820152602001611f07565b83811115611f2e576000848401525b50505050565b60008151808452611f4c816020860160208601611f04565b601f01601f19169290920160200192915050565b602081526000610d126020830184611f34565b60008060408385031215611f8657600080fd5b611f8f83611c35565b9150611f9d60208401611c35565b90509250929050565b80356001600160a01b0381168114611c4757600080fd5b600060208284031215611fcf57600080fd5b610d1282611fa6565b600080600080600060808688031215611ff057600080fd5b611ff986611c35565b945061200760208701611c35565b93506040860135925060608601356001600160401b0381111561202957600080fd5b61203588828901611c4c565b969995985093965092949392505050565b60008060006060848603121561205b57600080fd5b61206484611c35565b925061207260208501611c35565b9150604084013590509250925092565b60008060006060848603121561209757600080fd5b6120a084611c35565b925061207260208501611fa6565b600080600080608085870312156120c457600080fd5b6120cd85611c35565b93506120db60208601611c35565b92506120e960408601611fa6565b9396929550929360600135925050565b600181811c9082168061210d57607f821691505b6020821081141561212e57634e487b7160e01b600052602260045260246000fd5b50919050565b8183823760009101908152919050565b81835281816020850137506000828201602090810191909152601f909101601f19169091010190565b61ffff841681526040602082015260006113fc604083018486612144565b634e487b7160e01b600052601160045260246000fd5b6000828210156121b3576121b361218b565b500390565b8284823760609190911b6bffffffffffffffffffffffff19169101908152601401919050565b600061ffff80881683528087166020840152508460408301526080606083015261220c608083018486612144565b979650505050505050565b61ffff86168152608060208201526000612235608083018688612144565b6001600160401b0394909416604083015250606001529392505050565b60006000198214156122665761226661218b565b5060010190565b60006020828403121561227f57600080fd5b81516001600160401b0381111561229557600080fd5b8201601f810184136122a657600080fd5b80516122b4611ebc82611e3d565b8181528560208385010111156122c957600080fd5b6113fc826020830160208601611f04565b61ffff851681526080602082015260006122f76080830186611f34565b6001600160401b0385166040840152828103606084015261220c8185611f34565b60006020828403121561232a57600080fd5b5051919050565b600082198211156123445761234461218b565b500190565b61ffff8716815260c06020820152600061236660c0830188611f34565b82810360408401526123788188611f34565b6001600160a01b0387811660608601528616608085015283810360a085015290506123a38185611f34565b9998505050505050505050565b600082516123c2818460208701611f04565b9190910192915050565b61ffff8616815260a0602082015260006123e960a0830187611f34565b6001600160401b0386166040840152828103606084015261240a8186611f34565b9050828103608084015261241e8185611f34565b9897505050505050505056fea2646970667358221220d4f073089963b737ecc824ad2aafd4abb4e0815be4ed1fab00e69a854c351bb064736f6c634300080c0033",
  "devdoc": {
    "kind": "dev",
    "methods": {
      "owner()": {
        "details": "Returns the address of the current owner."
      },
      "paused()": {
        "details": "Returns true if the contract is paused, and false otherwise."
      },
      "renounceOwnership()": {
        "details": "Leaves the contract without owner. It will not be possible to call `onlyOwner` functions. Can only be called by the current owner. NOTE: Renouncing ownership will leave the contract without an owner, thereby disabling any functionality that is only available to the owner."
      },
      "transferOwnership(address)": {
        "details": "Transfers ownership of the contract to a new account (`newOwner`). Can only be called by the current owner."
      }
    },
    "version": 1
  },
  "userdoc": {
    "kind": "user",
    "methods": {},
    "version": 1
  },
  "storageLayout": {
    "storage": [
      {
        "astId": 7,
        "contract": "contracts/lz-test/PingPong.sol:PingPong",
        "label": "_owner",
        "offset": 0,
        "slot": "0",
        "type": "t_address"
      },
      {
        "astId": 765,
        "contract": "contracts/lz-test/PingPong.sol:PingPong",
        "label": "trustedRemoteLookup",
        "offset": 0,
        "slot": "1",
        "type": "t_mapping(t_uint16,t_bytes_storage)"
      },
      {
        "astId": 771,
        "contract": "contracts/lz-test/PingPong.sol:PingPong",
        "label": "minDstGasLookup",
        "offset": 0,
        "slot": "2",
        "type": "t_mapping(t_uint16,t_mapping(t_uint16,t_uint256))"
      },
      {
        "astId": 775,
        "contract": "contracts/lz-test/PingPong.sol:PingPong",
        "label": "payloadSizeLimitLookup",
        "offset": 0,
        "slot": "3",
        "type": "t_mapping(t_uint16,t_uint256)"
      },
      {
        "astId": 777,
        "contract": "contracts/lz-test/PingPong.sol:PingPong",
        "label": "precrime",
        "offset": 0,
        "slot": "4",
        "type": "t_address"
      },
      {
        "astId": 1314,
        "contract": "contracts/lz-test/PingPong.sol:PingPong",
        "label": "failedMessages",
        "offset": 0,
        "slot": "5",
        "type": "t_mapping(t_uint16,t_mapping(t_bytes_memory_ptr,t_mapping(t_uint64,t_bytes32)))"
      },
      {
        "astId": 130,
        "contract": "contracts/lz-test/PingPong.sol:PingPong",
        "label": "_paused",
        "offset": 0,
        "slot": "6",
        "type": "t_bool"
      },
      {
        "astId": 408,
        "contract": "contracts/lz-test/PingPong.sol:PingPong",
        "label": "counter",
        "offset": 0,
        "slot": "7",
        "type": "t_uint256"
      }
    ],
    "types": {
      "t_address": {
        "encoding": "inplace",
        "label": "address",
        "numberOfBytes": "20"
      },
      "t_bool": {
        "encoding": "inplace",
        "label": "bool",
        "numberOfBytes": "1"
      },
      "t_bytes32": {
        "encoding": "inplace",
        "label": "bytes32",
        "numberOfBytes": "32"
      },
      "t_bytes_memory_ptr": {
        "encoding": "bytes",
        "label": "bytes",
        "numberOfBytes": "32"
      },
      "t_bytes_storage": {
        "encoding": "bytes",
        "label": "bytes",
        "numberOfBytes": "32"
      },
      "t_mapping(t_bytes_memory_ptr,t_mapping(t_uint64,t_bytes32))": {
        "encoding": "mapping",
        "key": "t_bytes_memory_ptr",
        "label": "mapping(bytes => mapping(uint64 => bytes32))",
        "numberOfBytes": "32",
        "value": "t_mapping(t_uint64,t_bytes32)"
      },
      "t_mapping(t_uint16,t_bytes_storage)": {
        "encoding": "mapping",
        "key": "t_uint16",
        "label": "mapping(uint16 => bytes)",
        "numberOfBytes": "32",
        "value": "t_bytes_storage"
      },
      "t_mapping(t_uint16,t_mapping(t_bytes_memory_ptr,t_mapping(t_uint64,t_bytes32)))": {
        "encoding": "mapping",
        "key": "t_uint16",
        "label": "mapping(uint16 => mapping(bytes => mapping(uint64 => bytes32)))",
        "numberOfBytes": "32",
        "value": "t_mapping(t_bytes_memory_ptr,t_mapping(t_uint64,t_bytes32))"
      },
      "t_mapping(t_uint16,t_mapping(t_uint16,t_uint256))": {
        "encoding": "mapping",
        "key": "t_uint16",
        "label": "mapping(uint16 => mapping(uint16 => uint256))",
        "numberOfBytes": "32",
        "value": "t_mapping(t_uint16,t_uint256)"
      },
      "t_mapping(t_uint16,t_uint256)": {
        "encoding": "mapping",
        "key": "t_uint16",
        "label": "mapping(uint16 => uint256)",
        "numberOfBytes": "32",
        "value": "t_uint256"
      },
      "t_mapping(t_uint64,t_bytes32)": {
        "encoding": "mapping",
        "key": "t_uint64",
        "label": "mapping(uint64 => bytes32)",
        "numberOfBytes": "32",
        "value": "t_bytes32"
      },
      "t_uint16": {
        "encoding": "inplace",
        "label": "uint16",
        "numberOfBytes": "2"
      },
      "t_uint256": {
        "encoding": "inplace",
        "label": "uint256",
        "numberOfBytes": "32"
      },
      "t_uint64": {
        "encoding": "inplace",
        "label": "uint64",
        "numberOfBytes": "8"
      }
    }
  }
}